:100000000C942A000C9475020C949E020C94C70266
:100010000C9447000C9447000C9447000C94470044
:100020000C9447000C9447000C9447000C94470034
:100030000C9447000C9447000C9447000C94470024
:100040000C9447000C9447000C9447000C94470014
:100050000C94470011241FBECFE5D8E0DEBFCDBF12
:1000600010E0A0E6B0E0E4EEF5E002C005900D92ED
:10007000AA3FB107D9F711E0AAEFB0E001C01D9285
:10008000A030B107E1F70E9449000C94F0020C94F3
:1000900000000F931F93DF93CF93CDB7DEB7609728
:1000A0000FB6F894DEBF0FBECDBF0E941A0285E2E4
:1000B00091E00E9470028E010F5F1F4F0E948F011E
:1000C000882391F0C80163E20E941702C8010E94D0
:1000D000DF0190E002C010829F5FF801E90FF11D7F
:1000E00080818823C1F7EACF0E94C401E7CF85BB96
:1000F000DA98D998D89A80E29EE40197F1F7D898D7
:100100000895EF92FF920F931F938FEF84BB8ABBEA
:1001100080E2E82E8EE4F82EC7010197F1F788E31C
:100120000E94770000ED17E0C8010197F1F781E028
:100130000E947700C8010197F1F782E00E947700E2
:10014000C8010197F1F786E00E947700C801019786
:10015000F1F780E80E947700C7010197F1F78CE082
:100160000E947700C7010197F1F71F910F91FF904F
:10017000EF90089585BBDA9AD998D89A80EA9FE0E3
:100180000197F1F7D8980895882319F0813021F468
:1001900002C080E801C080EC603108F4860F0E9444
:1001A000770008950F931F93CF93DF938C01C0E0E6
:1001B000D0E003C00E94BA002196F801EC0FFD1FA9
:1001C0008081882319F0C031D105A1F7DF91CF914B
:1001D0001F910F9108958AB188618AB980B58668A8
:1001E00080BD83E389B910BC0895DC015F9BFECF1D
:1001F0008CB18C9390E008C09F5F5F9BFECF8CB169
:10020000FD01E90FF11D8083FD01E90FF11D8081E2
:10021000861711F0882381F71082089587B3806EC6
:1002200087BB88B38F7188BB089588B38F7188BBF3
:10023000089598B39F7198BB882319F488B3806A96
:1002400002C088B3806C88BB089581E00E9477006B
:1002500080E690E00E94D20088EA91E628EC30E047
:10026000F9013197F1F70197D9F781E00E94770002
:1002700085E790E00E94D200CB9BFECF81E060E05A
:100280000E94C4008FE790E00E94D20088E99AE3C0
:1002900028EC30E0F9013197F1F70197D9F781E0C7
:1002A0000E9477008DE890E00E94D200CC9BFECFA8
:1002B00081E060E00E94C40087E990E00E94D200E3
:1002C00088E99AE328EC30E0F9013197F1F70197DA
:1002D000D9F781E00E94770085EA90E00E94D20081
:1002E000089581E00E941901CC9BFECF0E94150168
:1002F000089580E00E941901CB9BFECF0E9415015A
:1003000008950E94710188E893E128EC30E0F9013A
:100310003197F1F70197D9F70E947901089589B3D0
:1003200082958F7080FF06C089B3869586958695E5
:1003300080FF0BC089B382958F7080FD0AC089B39E
:1003400086958695869580FD04C00E94790181E09E
:10035000089589B382958F7080FD06C089B3869514
:100360008695869580FD0EC089B382958F7080FF3B
:1003700008C089B386958695869580FF02C080E087
:100380000895089581E008950E94150181E00E947A
:10039000770010C080E060E00E94C40081EB90E034
:1003A0000E94D20081E060E00E94C4008EEB90E0E9
:1003B0000E94D2000E948F01882361F30895CF9399
:1003C000DF93EC010E948F01882301F18881803343
:1003D00051F481E00E94770080E060E00E94C40058
:1003E00086EC90E01FC08133A1F481E00E94770089
:1003F0008EEC90E00E94D20081E060E00E94C40098
:10040000CE010E94D2000E9481010EC00E94C40150
:100410000BC081E00E94770080E060E00E94C40091
:1004200086ED90E00E94D200DF91CF9108950E9466
:10043000F50008950E94EB000E9481000E940E01C9
:100440000E9457020E9468024AB389B321E030E05B
:10045000B90102C0660F771F8A95E2F7CB0180953C
:1004600084238ABB9BB389B302C0220F331F8A95B2
:10047000E2F7209529232BBB8A98D79887EE90E046
:100480000E94D20088E893E128EC30E0F90131972E
:10049000F1F70197D9F781E00E94770080E060E0F2
:1004A0000E94C40086ED90E00E94D200089587B1BA
:1004B0008F7387B987B1806C87B986B116B886B15A
:1004C000887F86B986B1876086B9349A379A08954D
:1004D00088B7806488BF85B7836085BF78940895A6
:1004E0009093FB008093FA0008951F920F920FB62D
:1004F0000F9211242F933F934F935F936F937F93AA
:100500008F939F93AF93BF93EF93FF93E091FA0084
:10051000F091FB00309709F00995FF91EF91BF91A1
:10052000AF919F918F917F916F915F914F913F918B
:100530002F910F900FBE0F901F9018951F920F9242
:100540000FB60F9211242F933F934F935F936F93A6
:100550007F938F939F93AF93BF93EF93FF93E0911C
:10056000FC00F091FD00309709F00995FF91EF91A3
:10057000BF91AF919F918F917F916F915F914F91BB
:100580003F912F910F900FBE0F901F9018951F92C3
:100590000F920FB60F9211242F933F934F935F93B7
:1005A0006F937F938F939F93AF93BF93EF93FF933B
:1005B000E091FE00F091FF00309709F00995FF915E
:1005C000EF91BF91AF919F918F917F916F915F91CB
:1005D0004F913F912F910F900FBE0F901F90189544
:0405E000F894FFCFBD
:1005E40054726F75626C6553686F6F74696E6720BF
:1005F4004D4F444500507265737320535731005377
:10060400573120697320434C4F5345440050726561
:100614007373205357320053573220697320434C6D
:100624004F53454400414C4C20495320444F4E45C0
:1006340000434845434B20444F4F522773005357C0
:10064400495443485300554E4B4E4F574E0057455F
:100654004C434F4D450057414954494E4720464F5E
:1006640052205541525400415454454E44414E4346
:0A067400452053595354454D000032
:00000001FF
